{
  "contractName": "NFT",
  "abi": [
    {
      "inputs": [
        {
          "internalType": "address",
          "name": "marketplaceAddress",
          "type": "address"
        }
      ],
      "stateMutability": "nonpayable",
      "type": "constructor"
    },
    {
      "anonymous": false,
      "inputs": [
        {
          "indexed": true,
          "internalType": "address",
          "name": "owner",
          "type": "address"
        },
        {
          "indexed": true,
          "internalType": "address",
          "name": "approved",
          "type": "address"
        },
        {
          "indexed": true,
          "internalType": "uint256",
          "name": "tokenId",
          "type": "uint256"
        }
      ],
      "name": "Approval",
      "type": "event"
    },
    {
      "anonymous": false,
      "inputs": [
        {
          "indexed": true,
          "internalType": "address",
          "name": "owner",
          "type": "address"
        },
        {
          "indexed": true,
          "internalType": "address",
          "name": "operator",
          "type": "address"
        },
        {
          "indexed": false,
          "internalType": "bool",
          "name": "approved",
          "type": "bool"
        }
      ],
      "name": "ApprovalForAll",
      "type": "event"
    },
    {
      "anonymous": false,
      "inputs": [
        {
          "indexed": true,
          "internalType": "address",
          "name": "from",
          "type": "address"
        },
        {
          "indexed": true,
          "internalType": "address",
          "name": "to",
          "type": "address"
        },
        {
          "indexed": true,
          "internalType": "uint256",
          "name": "tokenId",
          "type": "uint256"
        }
      ],
      "name": "Transfer",
      "type": "event"
    },
    {
      "inputs": [
        {
          "internalType": "address",
          "name": "to",
          "type": "address"
        },
        {
          "internalType": "uint256",
          "name": "tokenId",
          "type": "uint256"
        }
      ],
      "name": "approve",
      "outputs": [],
      "stateMutability": "nonpayable",
      "type": "function"
    },
    {
      "inputs": [
        {
          "internalType": "address",
          "name": "owner",
          "type": "address"
        }
      ],
      "name": "balanceOf",
      "outputs": [
        {
          "internalType": "uint256",
          "name": "",
          "type": "uint256"
        }
      ],
      "stateMutability": "view",
      "type": "function",
      "constant": true
    },
    {
      "inputs": [
        {
          "internalType": "uint256",
          "name": "",
          "type": "uint256"
        }
      ],
      "name": "colorsName",
      "outputs": [
        {
          "internalType": "string",
          "name": "",
          "type": "string"
        }
      ],
      "stateMutability": "view",
      "type": "function",
      "constant": true
    },
    {
      "inputs": [
        {
          "internalType": "uint256",
          "name": "tokenId",
          "type": "uint256"
        }
      ],
      "name": "getApproved",
      "outputs": [
        {
          "internalType": "address",
          "name": "",
          "type": "address"
        }
      ],
      "stateMutability": "view",
      "type": "function",
      "constant": true
    },
    {
      "inputs": [
        {
          "internalType": "address",
          "name": "owner",
          "type": "address"
        },
        {
          "internalType": "address",
          "name": "operator",
          "type": "address"
        }
      ],
      "name": "isApprovedForAll",
      "outputs": [
        {
          "internalType": "bool",
          "name": "",
          "type": "bool"
        }
      ],
      "stateMutability": "view",
      "type": "function",
      "constant": true
    },
    {
      "inputs": [],
      "name": "name",
      "outputs": [
        {
          "internalType": "string",
          "name": "",
          "type": "string"
        }
      ],
      "stateMutability": "view",
      "type": "function",
      "constant": true
    },
    {
      "inputs": [
        {
          "internalType": "uint256",
          "name": "tokenId",
          "type": "uint256"
        }
      ],
      "name": "ownerOf",
      "outputs": [
        {
          "internalType": "address",
          "name": "",
          "type": "address"
        }
      ],
      "stateMutability": "view",
      "type": "function",
      "constant": true
    },
    {
      "inputs": [
        {
          "internalType": "address",
          "name": "from",
          "type": "address"
        },
        {
          "internalType": "address",
          "name": "to",
          "type": "address"
        },
        {
          "internalType": "uint256",
          "name": "tokenId",
          "type": "uint256"
        }
      ],
      "name": "safeTransferFrom",
      "outputs": [],
      "stateMutability": "nonpayable",
      "type": "function"
    },
    {
      "inputs": [
        {
          "internalType": "address",
          "name": "from",
          "type": "address"
        },
        {
          "internalType": "address",
          "name": "to",
          "type": "address"
        },
        {
          "internalType": "uint256",
          "name": "tokenId",
          "type": "uint256"
        },
        {
          "internalType": "bytes",
          "name": "_data",
          "type": "bytes"
        }
      ],
      "name": "safeTransferFrom",
      "outputs": [],
      "stateMutability": "nonpayable",
      "type": "function"
    },
    {
      "inputs": [
        {
          "internalType": "address",
          "name": "operator",
          "type": "address"
        },
        {
          "internalType": "bool",
          "name": "approved",
          "type": "bool"
        }
      ],
      "name": "setApprovalForAll",
      "outputs": [],
      "stateMutability": "nonpayable",
      "type": "function"
    },
    {
      "inputs": [
        {
          "internalType": "bytes4",
          "name": "interfaceId",
          "type": "bytes4"
        }
      ],
      "name": "supportsInterface",
      "outputs": [
        {
          "internalType": "bool",
          "name": "",
          "type": "bool"
        }
      ],
      "stateMutability": "view",
      "type": "function",
      "constant": true
    },
    {
      "inputs": [],
      "name": "symbol",
      "outputs": [
        {
          "internalType": "string",
          "name": "",
          "type": "string"
        }
      ],
      "stateMutability": "view",
      "type": "function",
      "constant": true
    },
    {
      "inputs": [
        {
          "internalType": "uint256",
          "name": "tokenId",
          "type": "uint256"
        }
      ],
      "name": "tokenURI",
      "outputs": [
        {
          "internalType": "string",
          "name": "",
          "type": "string"
        }
      ],
      "stateMutability": "view",
      "type": "function",
      "constant": true
    },
    {
      "inputs": [
        {
          "internalType": "address",
          "name": "from",
          "type": "address"
        },
        {
          "internalType": "address",
          "name": "to",
          "type": "address"
        },
        {
          "internalType": "uint256",
          "name": "tokenId",
          "type": "uint256"
        }
      ],
      "name": "transferFrom",
      "outputs": [],
      "stateMutability": "nonpayable",
      "type": "function"
    },
    {
      "inputs": [],
      "name": "getTokenCount",
      "outputs": [
        {
          "internalType": "uint256",
          "name": "",
          "type": "uint256"
        }
      ],
      "stateMutability": "view",
      "type": "function",
      "constant": true
    },
    {
      "inputs": [
        {
          "internalType": "string",
          "name": "colorCode",
          "type": "string"
        }
      ],
      "name": "createToken",
      "outputs": [],
      "stateMutability": "nonpayable",
      "type": "function"
    }
  ],
  "bytecode": "0x60806040523480156200001157600080fd5b5060405162002d4038038062002d40833981810160405281019062000037919062000239565b6040518060400160405280600a81526020017f436f6c6f72546f6b656e000000000000000000000000000000000000000000008152506040518060400160405280600281526020017f43540000000000000000000000000000000000000000000000000000000000008152508160009080519060200190620000bb9291906200011f565b508060019080519060200190620000d49291906200011f565b50505080600960006101000a81548173ffffffffffffffffffffffffffffffffffffffff021916908373ffffffffffffffffffffffffffffffffffffffff16021790555050620002d0565b8280546200012d906200029a565b90600052602060002090601f0160209004810192826200015157600085556200019d565b82601f106200016c57805160ff19168380011785556200019d565b828001600101855582156200019d579182015b828111156200019c5782518255916020019190600101906200017f565b5b509050620001ac9190620001b0565b5090565b5b80821115620001cb576000816000905550600101620001b1565b5090565b600080fd5b600073ffffffffffffffffffffffffffffffffffffffff82169050919050565b60006200020182620001d4565b9050919050565b6200021381620001f4565b81146200021f57600080fd5b50565b600081519050620002338162000208565b92915050565b600060208284031215620002525762000251620001cf565b5b6000620002628482850162000222565b91505092915050565b7f4e487b7100000000000000000000000000000000000000000000000000000000600052602260045260246000fd5b60006002820490506001821680620002b357607f821691505b60208210811415620002ca57620002c96200026b565b5b50919050565b612a6080620002e06000396000f3fe608060405234801561001057600080fd5b50600436106101005760003560e01c80636352211e11610097578063a22cb46511610066578063a22cb465146102bf578063b88d4fde146102db578063c87b56dd146102f7578063e985e9c51461032757610100565b80636352211e1461022357806370a082311461025357806378a895671461028357806395d89b41146102a157610100565b806323b872dd116100d357806323b872dd1461019f57806342842e0e146101bb578063439ee138146101d757806345576f941461020757610100565b806301ffc9a71461010557806306fdde0314610135578063081812fc14610153578063095ea7b314610183575b600080fd5b61011f600480360381019061011a91906118e2565b610357565b60405161012c919061192a565b60405180910390f35b61013d610439565b60405161014a91906119de565b60405180910390f35b61016d60048036038101906101689190611a36565b6104cb565b60405161017a9190611aa4565b60405180910390f35b61019d60048036038101906101989190611aeb565b610550565b005b6101b960048036038101906101b49190611b2b565b610668565b005b6101d560048036038101906101d09190611b2b565b6106c8565b005b6101f160048036038101906101ec9190611a36565b6106e8565b6040516101fe91906119de565b60405180910390f35b610221600480360381019061021c9190611cb3565b610788565b005b61023d60048036038101906102389190611a36565b61086f565b60405161024a9190611aa4565b60405180910390f35b61026d60048036038101906102689190611cfc565b610921565b60405161027a9190611d38565b60405180910390f35b61028b6109d9565b6040516102989190611d38565b60405180910390f35b6102a96109ea565b6040516102b691906119de565b60405180910390f35b6102d960048036038101906102d49190611d7f565b610a7c565b005b6102f560048036038101906102f09190611e60565b610a92565b005b610311600480360381019061030c9190611a36565b610af4565b60405161031e91906119de565b60405180910390f35b610341600480360381019061033c9190611ee3565b610b9b565b60405161034e919061192a565b60405180910390f35b60007f80ac58cd000000000000000000000000000000000000000000000000000000007bffffffffffffffffffffffffffffffffffffffffffffffffffffffff1916827bffffffffffffffffffffffffffffffffffffffffffffffffffffffff1916148061042257507f5b5e139f000000000000000000000000000000000000000000000000000000007bffffffffffffffffffffffffffffffffffffffffffffffffffffffff1916827bffffffffffffffffffffffffffffffffffffffffffffffffffffffff1916145b80610432575061043182610c2f565b5b9050919050565b60606000805461044890611f52565b80601f016020809104026020016040519081016040528092919081815260200182805461047490611f52565b80156104c15780601f10610496576101008083540402835291602001916104c1565b820191906000526020600020905b8154815290600101906020018083116104a457829003601f168201915b5050505050905090565b60006104d682610c99565b610515576040517f08c379a000000000000000000000000000000000000000000000000000000000815260040161050c90611ff6565b60405180910390fd5b6004600083815260200190815260200160002060009054906101000a900473ffffffffffffffffffffffffffffffffffffffff169050919050565b600061055b8261086f565b90508073ffffffffffffffffffffffffffffffffffffffff168373ffffffffffffffffffffffffffffffffffffffff1614156105cc576040517f08c379a00000000000000000000000000000000000000000000000000000000081526004016105c390612088565b60405180910390fd5b8073ffffffffffffffffffffffffffffffffffffffff166105eb610d05565b73ffffffffffffffffffffffffffffffffffffffff16148061061a575061061981610614610d05565b610b9b565b5b610659576040517f08c379a00000000000000000000000000000000000000000000000000000000081526004016106509061211a565b60405180910390fd5b6106638383610d0d565b505050565b610679610673610d05565b82610dc6565b6106b8576040517f08c379a00000000000000000000000000000000000000000000000000000000081526004016106af906121ac565b60405180910390fd5b6106c3838383610ea4565b505050565b6106e383838360405180602001604052806000815250610a92565b505050565b6006602052806000526040600020600091509050805461070790611f52565b80601f016020809104026020016040519081016040528092919081815260200182805461073390611f52565b80156107805780601f1061075557610100808354040283529160200191610780565b820191906000526020600020905b81548152906001019060200180831161076357829003601f168201915b505050505081565b6007816040516107989190612208565b908152602001604051809103902060009054906101000a900460ff16156107be57600080fd5b6107c86008611100565b60006107d46008611116565b9050816006600083815260200190815260200160002090805190602001906107fd9291906117d3565b5060016007836040516108109190612208565b908152602001604051809103902060006101000a81548160ff02191690831515021790555061083f3382611124565b61086b600960009054906101000a900473ffffffffffffffffffffffffffffffffffffffff1682610550565b5050565b6000806002600084815260200190815260200160002060009054906101000a900473ffffffffffffffffffffffffffffffffffffffff169050600073ffffffffffffffffffffffffffffffffffffffff168173ffffffffffffffffffffffffffffffffffffffff161415610918576040517f08c379a000000000000000000000000000000000000000000000000000000000815260040161090f90612291565b60405180910390fd5b80915050919050565b60008073ffffffffffffffffffffffffffffffffffffffff168273ffffffffffffffffffffffffffffffffffffffff161415610992576040517f08c379a000000000000000000000000000000000000000000000000000000000815260040161098990612323565b60405180910390fd5b600360008373ffffffffffffffffffffffffffffffffffffffff1673ffffffffffffffffffffffffffffffffffffffff168152602001908152602001600020549050919050565b60006109e56008611116565b905090565b6060600180546109f990611f52565b80601f0160208091040260200160405190810160405280929190818152602001828054610a2590611f52565b8015610a725780601f10610a4757610100808354040283529160200191610a72565b820191906000526020600020905b815481529060010190602001808311610a5557829003601f168201915b5050505050905090565b610a8e610a87610d05565b83836112f2565b5050565b610aa3610a9d610d05565b83610dc6565b610ae2576040517f08c379a0000000000000000000000000000000000000000000000000000000008152600401610ad9906121ac565b60405180910390fd5b610aee8484848461145f565b50505050565b6060610aff82610c99565b610b3e576040517f08c379a0000000000000000000000000000000000000000000000000000000008152600401610b35906123b5565b60405180910390fd5b6000610b486114bb565b90506000815111610b685760405180602001604052806000815250610b93565b80610b72846114d2565b604051602001610b839291906123d5565b6040516020818303038152906040525b915050919050565b6000600560008473ffffffffffffffffffffffffffffffffffffffff1673ffffffffffffffffffffffffffffffffffffffff16815260200190815260200160002060008373ffffffffffffffffffffffffffffffffffffffff1673ffffffffffffffffffffffffffffffffffffffff16815260200190815260200160002060009054906101000a900460ff16905092915050565b60007f01ffc9a7000000000000000000000000000000000000000000000000000000007bffffffffffffffffffffffffffffffffffffffffffffffffffffffff1916827bffffffffffffffffffffffffffffffffffffffffffffffffffffffff1916149050919050565b60008073ffffffffffffffffffffffffffffffffffffffff166002600084815260200190815260200160002060009054906101000a900473ffffffffffffffffffffffffffffffffffffffff1673ffffffffffffffffffffffffffffffffffffffff1614159050919050565b600033905090565b816004600083815260200190815260200160002060006101000a81548173ffffffffffffffffffffffffffffffffffffffff021916908373ffffffffffffffffffffffffffffffffffffffff160217905550808273ffffffffffffffffffffffffffffffffffffffff16610d808361086f565b73ffffffffffffffffffffffffffffffffffffffff167f8c5be1e5ebec7d5bd14f71427d1e84f3dd0314c0f7b2291e5b200ac8c7c3b92560405160405180910390a45050565b6000610dd182610c99565b610e10576040517f08c379a0000000000000000000000000000000000000000000000000000000008152600401610e079061246b565b60405180910390fd5b6000610e1b8361086f565b90508073ffffffffffffffffffffffffffffffffffffffff168473ffffffffffffffffffffffffffffffffffffffff161480610e8a57508373ffffffffffffffffffffffffffffffffffffffff16610e72846104cb565b73ffffffffffffffffffffffffffffffffffffffff16145b80610e9b5750610e9a8185610b9b565b5b91505092915050565b8273ffffffffffffffffffffffffffffffffffffffff16610ec48261086f565b73ffffffffffffffffffffffffffffffffffffffff1614610f1a576040517f08c379a0000000000000000000000000000000000000000000000000000000008152600401610f11906124fd565b60405180910390fd5b600073ffffffffffffffffffffffffffffffffffffffff168273ffffffffffffffffffffffffffffffffffffffff161415610f8a576040517f08c379a0000000000000000000000000000000000000000000000000000000008152600401610f819061258f565b60405180910390fd5b610f95838383611633565b610fa0600082610d0d565b6001600360008573ffffffffffffffffffffffffffffffffffffffff1673ffffffffffffffffffffffffffffffffffffffff1681526020019081526020016000206000828254610ff091906125de565b925050819055506001600360008473ffffffffffffffffffffffffffffffffffffffff1673ffffffffffffffffffffffffffffffffffffffff16815260200190815260200160002060008282546110479190612612565b92505081905550816002600083815260200190815260200160002060006101000a81548173ffffffffffffffffffffffffffffffffffffffff021916908373ffffffffffffffffffffffffffffffffffffffff160217905550808273ffffffffffffffffffffffffffffffffffffffff168473ffffffffffffffffffffffffffffffffffffffff167fddf252ad1be2c89b69c2b068fc378daa952ba7f163c4a11628f55a4df523b3ef60405160405180910390a4505050565b6001816000016000828254019250508190555050565b600081600001549050919050565b600073ffffffffffffffffffffffffffffffffffffffff168273ffffffffffffffffffffffffffffffffffffffff161415611194576040517f08c379a000000000000000000000000000000000000000000000000000000000815260040161118b906126b4565b60405180910390fd5b61119d81610c99565b156111dd576040517f08c379a00000000000000000000000000000000000000000000000000000000081526004016111d490612720565b60405180910390fd5b6111e960008383611633565b6001600360008473ffffffffffffffffffffffffffffffffffffffff1673ffffffffffffffffffffffffffffffffffffffff16815260200190815260200160002060008282546112399190612612565b92505081905550816002600083815260200190815260200160002060006101000a81548173ffffffffffffffffffffffffffffffffffffffff021916908373ffffffffffffffffffffffffffffffffffffffff160217905550808273ffffffffffffffffffffffffffffffffffffffff16600073ffffffffffffffffffffffffffffffffffffffff167fddf252ad1be2c89b69c2b068fc378daa952ba7f163c4a11628f55a4df523b3ef60405160405180910390a45050565b8173ffffffffffffffffffffffffffffffffffffffff168373ffffffffffffffffffffffffffffffffffffffff161415611361576040517f08c379a00000000000000000000000000000000000000000000000000000000081526004016113589061278c565b60405180910390fd5b80600560008573ffffffffffffffffffffffffffffffffffffffff1673ffffffffffffffffffffffffffffffffffffffff16815260200190815260200160002060008473ffffffffffffffffffffffffffffffffffffffff1673ffffffffffffffffffffffffffffffffffffffff16815260200190815260200160002060006101000a81548160ff0219169083151502179055508173ffffffffffffffffffffffffffffffffffffffff168373ffffffffffffffffffffffffffffffffffffffff167f17307eab39ab6107e8899845ad3d59bd9653f200f220920489ca2b5937696c3183604051611452919061192a565b60405180910390a3505050565b61146a848484610ea4565b61147684848484611638565b6114b5576040517f08c379a00000000000000000000000000000000000000000000000000000000081526004016114ac9061281e565b60405180910390fd5b50505050565b606060405180602001604052806000815250905090565b6060600082141561151a576040518060400160405280600181526020017f3000000000000000000000000000000000000000000000000000000000000000815250905061162e565b600082905060005b6000821461154c5780806115359061283e565b915050600a8261154591906128b6565b9150611522565b60008167ffffffffffffffff81111561156857611567611b88565b5b6040519080825280601f01601f19166020018201604052801561159a5781602001600182028036833780820191505090505b5090505b60008514611627576001826115b391906125de565b9150600a856115c291906128e7565b60306115ce9190612612565b60f81b8183815181106115e4576115e3612918565b5b60200101907effffffffffffffffffffffffffffffffffffffffffffffffffffffffffffff1916908160001a905350600a8561162091906128b6565b945061159e565b8093505050505b919050565b505050565b60006116598473ffffffffffffffffffffffffffffffffffffffff166117c0565b156117b3578373ffffffffffffffffffffffffffffffffffffffff1663150b7a02611682610d05565b8786866040518563ffffffff1660e01b81526004016116a4949392919061299c565b6020604051808303816000875af19250505080156116e057506040513d601f19601f820116820180604052508101906116dd91906129fd565b60015b611763573d8060008114611710576040519150601f19603f3d011682016040523d82523d6000602084013e611715565b606091505b5060008151141561175b576040517f08c379a00000000000000000000000000000000000000000000000000000000081526004016117529061281e565b60405180910390fd5b805181602001fd5b63150b7a0260e01b7bffffffffffffffffffffffffffffffffffffffffffffffffffffffff1916817bffffffffffffffffffffffffffffffffffffffffffffffffffffffff1916149150506117b8565b600190505b949350505050565b600080823b905060008111915050919050565b8280546117df90611f52565b90600052602060002090601f0160209004810192826118015760008555611848565b82601f1061181a57805160ff1916838001178555611848565b82800160010185558215611848579182015b8281111561184757825182559160200191906001019061182c565b5b5090506118559190611859565b5090565b5b8082111561187257600081600090555060010161185a565b5090565b6000604051905090565b600080fd5b600080fd5b60007fffffffff0000000000000000000000000000000000000000000000000000000082169050919050565b6118bf8161188a565b81146118ca57600080fd5b50565b6000813590506118dc816118b6565b92915050565b6000602082840312156118f8576118f7611880565b5b6000611906848285016118cd565b91505092915050565b60008115159050919050565b6119248161190f565b82525050565b600060208201905061193f600083018461191b565b92915050565b600081519050919050565b600082825260208201905092915050565b60005b8381101561197f578082015181840152602081019050611964565b8381111561198e576000848401525b50505050565b6000601f19601f8301169050919050565b60006119b082611945565b6119ba8185611950565b93506119ca818560208601611961565b6119d381611994565b840191505092915050565b600060208201905081810360008301526119f881846119a5565b905092915050565b6000819050919050565b611a1381611a00565b8114611a1e57600080fd5b50565b600081359050611a3081611a0a565b92915050565b600060208284031215611a4c57611a4b611880565b5b6000611a5a84828501611a21565b91505092915050565b600073ffffffffffffffffffffffffffffffffffffffff82169050919050565b6000611a8e82611a63565b9050919050565b611a9e81611a83565b82525050565b6000602082019050611ab96000830184611a95565b92915050565b611ac881611a83565b8114611ad357600080fd5b50565b600081359050611ae581611abf565b92915050565b60008060408385031215611b0257611b01611880565b5b6000611b1085828601611ad6565b9250506020611b2185828601611a21565b9150509250929050565b600080600060608486031215611b4457611b43611880565b5b6000611b5286828701611ad6565b9350506020611b6386828701611ad6565b9250506040611b7486828701611a21565b9150509250925092565b600080fd5b600080fd5b7f4e487b7100000000000000000000000000000000000000000000000000000000600052604160045260246000fd5b611bc082611994565b810181811067ffffffffffffffff82111715611bdf57611bde611b88565b5b80604052505050565b6000611bf2611876565b9050611bfe8282611bb7565b919050565b600067ffffffffffffffff821115611c1e57611c1d611b88565b5b611c2782611994565b9050602081019050919050565b82818337600083830152505050565b6000611c56611c5184611c03565b611be8565b905082815260208101848484011115611c7257611c71611b83565b5b611c7d848285611c34565b509392505050565b600082601f830112611c9a57611c99611b7e565b5b8135611caa848260208601611c43565b91505092915050565b600060208284031215611cc957611cc8611880565b5b600082013567ffffffffffffffff811115611ce757611ce6611885565b5b611cf384828501611c85565b91505092915050565b600060208284031215611d1257611d11611880565b5b6000611d2084828501611ad6565b91505092915050565b611d3281611a00565b82525050565b6000602082019050611d4d6000830184611d29565b92915050565b611d5c8161190f565b8114611d6757600080fd5b50565b600081359050611d7981611d53565b92915050565b60008060408385031215611d9657611d95611880565b5b6000611da485828601611ad6565b9250506020611db585828601611d6a565b9150509250929050565b600067ffffffffffffffff821115611dda57611dd9611b88565b5b611de382611994565b9050602081019050919050565b6000611e03611dfe84611dbf565b611be8565b905082815260208101848484011115611e1f57611e1e611b83565b5b611e2a848285611c34565b509392505050565b600082601f830112611e4757611e46611b7e565b5b8135611e57848260208601611df0565b91505092915050565b60008060008060808587031215611e7a57611e79611880565b5b6000611e8887828801611ad6565b9450506020611e9987828801611ad6565b9350506040611eaa87828801611a21565b925050606085013567ffffffffffffffff811115611ecb57611eca611885565b5b611ed787828801611e32565b91505092959194509250565b60008060408385031215611efa57611ef9611880565b5b6000611f0885828601611ad6565b9250506020611f1985828601611ad6565b9150509250929050565b7f4e487b7100000000000000000000000000000000000000000000000000000000600052602260045260246000fd5b60006002820490506001821680611f6a57607f821691505b60208210811415611f7e57611f7d611f23565b5b50919050565b7f4552433732313a20617070726f76656420717565727920666f72206e6f6e657860008201527f697374656e7420746f6b656e0000000000000000000000000000000000000000602082015250565b6000611fe0602c83611950565b9150611feb82611f84565b604082019050919050565b6000602082019050818103600083015261200f81611fd3565b9050919050565b7f4552433732313a20617070726f76616c20746f2063757272656e74206f776e6560008201527f7200000000000000000000000000000000000000000000000000000000000000602082015250565b6000612072602183611950565b915061207d82612016565b604082019050919050565b600060208201905081810360008301526120a181612065565b9050919050565b7f4552433732313a20617070726f76652063616c6c6572206973206e6f74206f7760008201527f6e6572206e6f7220617070726f76656420666f7220616c6c0000000000000000602082015250565b6000612104603883611950565b915061210f826120a8565b604082019050919050565b60006020820190508181036000830152612133816120f7565b9050919050565b7f4552433732313a207472616e736665722063616c6c6572206973206e6f74206f60008201527f776e6572206e6f7220617070726f766564000000000000000000000000000000602082015250565b6000612196603183611950565b91506121a18261213a565b604082019050919050565b600060208201905081810360008301526121c581612189565b9050919050565b600081905092915050565b60006121e282611945565b6121ec81856121cc565b93506121fc818560208601611961565b80840191505092915050565b600061221482846121d7565b915081905092915050565b7f4552433732313a206f776e657220717565727920666f72206e6f6e657869737460008201527f656e7420746f6b656e0000000000000000000000000000000000000000000000602082015250565b600061227b602983611950565b91506122868261221f565b604082019050919050565b600060208201905081810360008301526122aa8161226e565b9050919050565b7f4552433732313a2062616c616e636520717565727920666f7220746865207a6560008201527f726f206164647265737300000000000000000000000000000000000000000000602082015250565b600061230d602a83611950565b9150612318826122b1565b604082019050919050565b6000602082019050818103600083015261233c81612300565b9050919050565b7f4552433732314d657461646174613a2055524920717565727920666f72206e6f60008201527f6e6578697374656e7420746f6b656e0000000000000000000000000000000000602082015250565b600061239f602f83611950565b91506123aa82612343565b604082019050919050565b600060208201905081810360008301526123ce81612392565b9050919050565b60006123e182856121d7565b91506123ed82846121d7565b91508190509392505050565b7f4552433732313a206f70657261746f7220717565727920666f72206e6f6e657860008201527f697374656e7420746f6b656e0000000000000000000000000000000000000000602082015250565b6000612455602c83611950565b9150612460826123f9565b604082019050919050565b6000602082019050818103600083015261248481612448565b9050919050565b7f4552433732313a207472616e73666572206f6620746f6b656e2074686174206960008201527f73206e6f74206f776e0000000000000000000000000000000000000000000000602082015250565b60006124e7602983611950565b91506124f28261248b565b604082019050919050565b60006020820190508181036000830152612516816124da565b9050919050565b7f4552433732313a207472616e7366657220746f20746865207a65726f2061646460008201527f7265737300000000000000000000000000000000000000000000000000000000602082015250565b6000612579602483611950565b91506125848261251d565b604082019050919050565b600060208201905081810360008301526125a88161256c565b9050919050565b7f4e487b7100000000000000000000000000000000000000000000000000000000600052601160045260246000fd5b60006125e982611a00565b91506125f483611a00565b925082821015612607576126066125af565b5b828203905092915050565b600061261d82611a00565b915061262883611a00565b9250827fffffffffffffffffffffffffffffffffffffffffffffffffffffffffffffffff0382111561265d5761265c6125af565b5b828201905092915050565b7f4552433732313a206d696e7420746f20746865207a65726f2061646472657373600082015250565b600061269e602083611950565b91506126a982612668565b602082019050919050565b600060208201905081810360008301526126cd81612691565b9050919050565b7f4552433732313a20746f6b656e20616c7265616479206d696e74656400000000600082015250565b600061270a601c83611950565b9150612715826126d4565b602082019050919050565b60006020820190508181036000830152612739816126fd565b9050919050565b7f4552433732313a20617070726f766520746f2063616c6c657200000000000000600082015250565b6000612776601983611950565b915061278182612740565b602082019050919050565b600060208201905081810360008301526127a581612769565b9050919050565b7f4552433732313a207472616e7366657220746f206e6f6e20455243373231526560008201527f63656976657220696d706c656d656e7465720000000000000000000000000000602082015250565b6000612808603283611950565b9150612813826127ac565b604082019050919050565b60006020820190508181036000830152612837816127fb565b9050919050565b600061284982611a00565b91507fffffffffffffffffffffffffffffffffffffffffffffffffffffffffffffffff82141561287c5761287b6125af565b5b600182019050919050565b7f4e487b7100000000000000000000000000000000000000000000000000000000600052601260045260246000fd5b60006128c182611a00565b91506128cc83611a00565b9250826128dc576128db612887565b5b828204905092915050565b60006128f282611a00565b91506128fd83611a00565b92508261290d5761290c612887565b5b828206905092915050565b7f4e487b7100000000000000000000000000000000000000000000000000000000600052603260045260246000fd5b600081519050919050565b600082825260208201905092915050565b600061296e82612947565b6129788185612952565b9350612988818560208601611961565b61299181611994565b840191505092915050565b60006080820190506129b16000830187611a95565b6129be6020830186611a95565b6129cb6040830185611d29565b81810360608301526129dd8184612963565b905095945050505050565b6000815190506129f7816118b6565b92915050565b600060208284031215612a1357612a12611880565b5b6000612a21848285016129e8565b9150509291505056fea26469706673582212204c3383158902271a9f90706c736b3de1d44c69a2d231b3afb5b4859a4ac0e65c64736f6c634300080b0033",
  "immutableReferences": {},
  "source": "// SPDX-License-Identifier: MIT\npragma solidity 0.8.11;\n\nimport \"@openzeppelin/contracts/utils/Counters.sol\";\nimport \"@openzeppelin/contracts/token/ERC721/ERC721.sol\";\n\ncontract NFT is ERC721 {\n    mapping(uint256 => string) public colorsName;\n    mapping(string => bool) _colorExists;\n\n    using Counters for Counters.Counter;\n    Counters.Counter private tokenIds;\n    address contractAddress;\n\n    constructor(address marketplaceAddress) ERC721(\"ColorToken\", \"CT\") {\n        contractAddress = marketplaceAddress;\n    }\n\n    function getTokenCount() public view returns (uint256) {\n        return tokenIds.current();\n    }\n\n    function createToken(string memory colorCode) public {\n        require(!_colorExists[colorCode]);\n\n        tokenIds.increment();\n        uint256 tokenId = tokenIds.current();\n        colorsName[tokenId] = colorCode;\n\n        _colorExists[colorCode] = true;\n\n        _mint(msg.sender, tokenId);\n        approve(contractAddress, tokenId);\n    }\n}\n",
  "sourcePath": "E:\\Color-Token-Marketplace\\contracts\\NFT.sol",
  "compiler": {
    "name": "solc",
    "version": "0.8.11+commit.d7f03943.Emscripten.clang"
  },
  "schemaVersion": "3.4.3",
  "updatedAt": "2021-12-29T00:59:09.410Z",
  "networkType": "ethereum",
  "devdoc": {
    "kind": "dev",
    "methods": {
      "approve(address,uint256)": {
        "details": "See {IERC721-approve}."
      },
      "balanceOf(address)": {
        "details": "See {IERC721-balanceOf}."
      },
      "getApproved(uint256)": {
        "details": "See {IERC721-getApproved}."
      },
      "isApprovedForAll(address,address)": {
        "details": "See {IERC721-isApprovedForAll}."
      },
      "name()": {
        "details": "See {IERC721Metadata-name}."
      },
      "ownerOf(uint256)": {
        "details": "See {IERC721-ownerOf}."
      },
      "safeTransferFrom(address,address,uint256)": {
        "details": "See {IERC721-safeTransferFrom}."
      },
      "safeTransferFrom(address,address,uint256,bytes)": {
        "details": "See {IERC721-safeTransferFrom}."
      },
      "setApprovalForAll(address,bool)": {
        "details": "See {IERC721-setApprovalForAll}."
      },
      "supportsInterface(bytes4)": {
        "details": "See {IERC165-supportsInterface}."
      },
      "symbol()": {
        "details": "See {IERC721Metadata-symbol}."
      },
      "tokenURI(uint256)": {
        "details": "See {IERC721Metadata-tokenURI}."
      },
      "transferFrom(address,address,uint256)": {
        "details": "See {IERC721-transferFrom}."
      }
    },
    "version": 1
  },
  "userdoc": {
    "kind": "user",
    "methods": {},
    "version": 1
  }
}