{
  "contractName": "NFTMarket",
  "abi": [
    {
      "inputs": [],
      "stateMutability": "nonpayable",
      "type": "constructor"
    },
    {
      "inputs": [
        {
          "internalType": "uint256",
          "name": "",
          "type": "uint256"
        }
      ],
      "name": "idToMarketItem",
      "outputs": [
        {
          "internalType": "uint256",
          "name": "itemId",
          "type": "uint256"
        },
        {
          "internalType": "address",
          "name": "nftContract",
          "type": "address"
        },
        {
          "internalType": "uint256",
          "name": "tokenId",
          "type": "uint256"
        },
        {
          "internalType": "address payable",
          "name": "seller",
          "type": "address"
        },
        {
          "internalType": "bool",
          "name": "sold",
          "type": "bool"
        }
      ],
      "stateMutability": "view",
      "type": "function",
      "constant": true
    },
    {
      "inputs": [],
      "name": "itemIds",
      "outputs": [
        {
          "internalType": "uint256",
          "name": "_value",
          "type": "uint256"
        }
      ],
      "stateMutability": "view",
      "type": "function",
      "constant": true
    },
    {
      "inputs": [],
      "name": "getItemCount",
      "outputs": [
        {
          "internalType": "uint256",
          "name": "",
          "type": "uint256"
        }
      ],
      "stateMutability": "view",
      "type": "function",
      "constant": true
    },
    {
      "inputs": [
        {
          "internalType": "address",
          "name": "nftContract",
          "type": "address"
        },
        {
          "internalType": "uint256",
          "name": "tokenId",
          "type": "uint256"
        }
      ],
      "name": "createMarketItem",
      "outputs": [],
      "stateMutability": "payable",
      "type": "function",
      "payable": true
    },
    {
      "inputs": [
        {
          "internalType": "address",
          "name": "nftContract",
          "type": "address"
        },
        {
          "internalType": "uint256",
          "name": "itemId",
          "type": "uint256"
        }
      ],
      "name": "createMarketSale",
      "outputs": [],
      "stateMutability": "payable",
      "type": "function",
      "payable": true
    }
  ],
  "bytecode": "0x60806040526658d15e1762800060035534801561001b57600080fd5b50600160008190555033600260006101000a81548173ffffffffffffffffffffffffffffffffffffffff021916908373ffffffffffffffffffffffffffffffffffffffff160217905550610a7d806100746000396000f3fe6080604052600436106100495760003560e01c8062b921cb1461004e5780637749cf2314610079578063c23b139e146100a4578063dd5f8518146100c0578063e61a70c0146100dc575b600080fd5b34801561005a57600080fd5b5061006361011d565b604051610070919061065b565b60405180910390f35b34801561008557600080fd5b5061008e610129565b60405161009b919061065b565b60405180910390f35b6100be60048036038101906100b99190610705565b61013a565b005b6100da60048036038101906100d59190610705565b6103b6565b005b3480156100e857600080fd5b5061010360048036038101906100fe9190610745565b61059b565b6040516101149594939291906107bd565b60405180910390f35b60018060000154905081565b6000610135600161061e565b905090565b60026000541415610180576040517f08c379a00000000000000000000000000000000000000000000000000000000081526004016101779061086d565b60405180910390fd5b6002600081905550600060046000838152602001908152602001600020600201549050670de0b6b3a764000034146101ed576040517f08c379a00000000000000000000000000000000000000000000000000000000081526004016101e4906108ff565b60405180910390fd5b6004600083815260200190815260200160002060030160009054906101000a900473ffffffffffffffffffffffffffffffffffffffff1673ffffffffffffffffffffffffffffffffffffffff166108fc349081150290604051600060405180830381858888f19350505050158015610269573d6000803e3d6000fd5b508273ffffffffffffffffffffffffffffffffffffffff166323b872dd6004600085815260200190815260200160002060030160009054906101000a900473ffffffffffffffffffffffffffffffffffffffff1633846040518463ffffffff1660e01b81526004016102dd9392919061097e565b600060405180830381600087803b1580156102f757600080fd5b505af115801561030b573d6000803e3d6000fd5b5050505060016004600084815260200190815260200160002060030160146101000a81548160ff021916908315150217905550600260009054906101000a900473ffffffffffffffffffffffffffffffffffffffff1673ffffffffffffffffffffffffffffffffffffffff166108fc6003549081150290604051600060405180830381858888f193505050501580156103a8573d6000803e3d6000fd5b505060016000819055505050565b600260005414156103fc576040517f08c379a00000000000000000000000000000000000000000000000000000000081526004016103f39061086d565b60405180910390fd5b60026000819055506003543414610448576040517f08c379a000000000000000000000000000000000000000000000000000000000815260040161043f90610a27565b60405180910390fd5b610452600161062c565b600061045e600161061e565b90506040518060a001604052808281526020018473ffffffffffffffffffffffffffffffffffffffff1681526020018381526020013373ffffffffffffffffffffffffffffffffffffffff16815260200160001515815250600460008381526020019081526020016000206000820151816000015560208201518160010160006101000a81548173ffffffffffffffffffffffffffffffffffffffff021916908373ffffffffffffffffffffffffffffffffffffffff1602179055506040820151816002015560608201518160030160006101000a81548173ffffffffffffffffffffffffffffffffffffffff021916908373ffffffffffffffffffffffffffffffffffffffff16021790555060808201518160030160146101000a81548160ff0219169083151502179055509050505060016000819055505050565b60046020528060005260406000206000915090508060000154908060010160009054906101000a900473ffffffffffffffffffffffffffffffffffffffff16908060020154908060030160009054906101000a900473ffffffffffffffffffffffffffffffffffffffff16908060030160149054906101000a900460ff16905085565b600081600001549050919050565b6001816000016000828254019250508190555050565b6000819050919050565b61065581610642565b82525050565b6000602082019050610670600083018461064c565b92915050565b600080fd5b600073ffffffffffffffffffffffffffffffffffffffff82169050919050565b60006106a68261067b565b9050919050565b6106b68161069b565b81146106c157600080fd5b50565b6000813590506106d3816106ad565b92915050565b6106e281610642565b81146106ed57600080fd5b50565b6000813590506106ff816106d9565b92915050565b6000806040838503121561071c5761071b610676565b5b600061072a858286016106c4565b925050602061073b858286016106f0565b9150509250929050565b60006020828403121561075b5761075a610676565b5b6000610769848285016106f0565b91505092915050565b61077b8161069b565b82525050565b600061078c8261067b565b9050919050565b61079c81610781565b82525050565b60008115159050919050565b6107b7816107a2565b82525050565b600060a0820190506107d2600083018861064c565b6107df6020830187610772565b6107ec604083018661064c565b6107f96060830185610793565b61080660808301846107ae565b9695505050505050565b600082825260208201905092915050565b7f5265656e7472616e637947756172643a207265656e7472616e742063616c6c00600082015250565b6000610857601f83610810565b915061086282610821565b602082019050919050565b600060208201905081810360008301526108868161084a565b9050919050565b7f506c65617365207375626d6974207468652061736b696e67207072696365206960008201527f6e206f7264657220746f20636f6d706c65746520746865207075726368617365602082015250565b60006108e9604083610810565b91506108f48261088d565b604082019050919050565b60006020820190508181036000830152610918816108dc565b9050919050565b6000819050919050565b600061094461093f61093a8461067b565b61091f565b61067b565b9050919050565b600061095682610929565b9050919050565b60006109688261094b565b9050919050565b6109788161095d565b82525050565b6000606082019050610993600083018661096f565b6109a06020830185610772565b6109ad604083018461064c565b949350505050565b7f5072696365206d75737420626520657175616c20746f206c697374696e67207060008201527f7269636500000000000000000000000000000000000000000000000000000000602082015250565b6000610a11602483610810565b9150610a1c826109b5565b604082019050919050565b60006020820190508181036000830152610a4081610a04565b905091905056fea26469706673582212201741a29291ae9039e893ee748dfa910af98bfcf8601bb6fe1910d199498dabc164736f6c634300080b0033",
  "immutableReferences": {},
  "source": "// SPDX-License-Identifier: MIT OR Apache-2.0\r\npragma solidity ^0.8.3;\r\n\r\nimport \"@openzeppelin/contracts/utils/Counters.sol\";\r\nimport \"@openzeppelin/contracts/security/ReentrancyGuard.sol\";\r\nimport \"@openzeppelin/contracts/token/ERC721/ERC721.sol\";\r\n\r\ncontract NFTMarket is ReentrancyGuard {\r\n    using Counters for Counters.Counter;\r\n    Counters.Counter public itemIds;\r\n\r\n    address payable owner;\r\n    uint256 listingPrice = 0.025 ether;\r\n\r\n    constructor() {\r\n        owner = payable(msg.sender);\r\n    }\r\n\r\n    struct MarketItem {\r\n        uint256 itemId;\r\n        address nftContract;\r\n        uint256 tokenId;\r\n        address payable seller;\r\n        bool sold;\r\n    }\r\n\r\n    mapping(uint256 => MarketItem) public idToMarketItem;\r\n\r\n    function getItemCount() public view returns (uint256) {\r\n        return itemIds.current();\r\n    }\r\n\r\n    /* Places an item for sale on the marketplace */\r\n    function createMarketItem(address nftContract, uint256 tokenId)\r\n        public\r\n        payable\r\n        nonReentrant\r\n    {\r\n        require(\r\n            msg.value == listingPrice,\r\n            \"Price must be equal to listing price\"\r\n        );\r\n\r\n        itemIds.increment();\r\n        uint256 itemId = itemIds.current();\r\n\r\n        idToMarketItem[itemId] = MarketItem(\r\n            itemId,\r\n            nftContract,\r\n            tokenId,\r\n            payable(msg.sender),\r\n            false\r\n        );\r\n    }\r\n\r\n    /* Creates the sale of a marketplace item */\r\n    /* Transfers ownership of the item, as well as funds between parties */\r\n    function createMarketSale(address nftContract, uint256 itemId)\r\n        public\r\n        payable\r\n        nonReentrant\r\n    {\r\n        uint256 tokenId = idToMarketItem[itemId].tokenId;\r\n        require(\r\n            msg.value == 1 ether,\r\n            \"Please submit the asking price in order to complete the purchase\"\r\n        );\r\n\r\n        idToMarketItem[itemId].seller.transfer(msg.value);\r\n        IERC721(nftContract).transferFrom(\r\n            idToMarketItem[itemId].seller,\r\n            msg.sender,\r\n            tokenId\r\n        );\r\n        idToMarketItem[itemId].sold = true;\r\n        payable(owner).transfer(listingPrice);\r\n    }\r\n}\r\n",
  "sourcePath": "E:\\Color-Token-Marketplace\\contracts\\MarketPlace.sol",
  "compiler": {
    "name": "solc",
    "version": "0.8.11+commit.d7f03943.Emscripten.clang"
  },
  "schemaVersion": "3.4.3",
  "updatedAt": "2021-12-29T00:59:09.401Z",
  "networkType": "ethereum",
  "devdoc": {
    "kind": "dev",
    "methods": {},
    "version": 1
  },
  "userdoc": {
    "kind": "user",
    "methods": {},
    "version": 1
  }
}